{
  "contractName": "Authentication",
  "abi": [
    {
      "constant": true,
      "inputs": [],
      "name": "noOfUsers",
      "outputs": [
        {
          "name": "",
          "type": "uint256"
        }
      ],
      "payable": false,
      "stateMutability": "view",
      "type": "function"
    },
    {
      "inputs": [],
      "payable": false,
      "stateMutability": "nonpayable",
      "type": "constructor"
    },
    {
      "constant": false,
      "inputs": [
        {
          "name": "_signature",
          "type": "string"
        }
      ],
      "name": "register",
      "outputs": [],
      "payable": false,
      "stateMutability": "nonpayable",
      "type": "function"
    },
    {
      "constant": true,
      "inputs": [],
      "name": "getSignatureHash",
      "outputs": [
        {
          "name": "",
          "type": "string"
        }
      ],
      "payable": false,
      "stateMutability": "view",
      "type": "function"
    },
    {
      "constant": true,
      "inputs": [],
      "name": "getUserAddress",
      "outputs": [
        {
          "name": "",
          "type": "address"
        }
      ],
      "payable": false,
      "stateMutability": "view",
      "type": "function"
    }
  ],
  "bytecode": "0x608060405234801561001057600080fd5b506000808190555061054a806100276000396000f3fe60806040526004361061005c576000357c01000000000000000000000000000000000000000000000000000000009004806301934a8314610061578063c127ae411461008c578063ebc3eee81461011c578063f2c298be14610173575b600080fd5b34801561006d57600080fd5b5061007661023b565b6040518082815260200191505060405180910390f35b34801561009857600080fd5b506100a1610241565b6040518080602001828103825283818151815260200191508051906020019080838360005b838110156100e15780820151818401526020810190506100c6565b50505050905090810190601f16801561010e5780820380516001836020036101000a031916815260200191505b509250505060405180910390f35b34801561012857600080fd5b50610131610323565b604051808273ffffffffffffffffffffffffffffffffffffffff1673ffffffffffffffffffffffffffffffffffffffff16815260200191505060405180910390f35b34801561017f57600080fd5b506102396004803603602081101561019657600080fd5b81019080803590602001906401000000008111156101b357600080fd5b8201836020820111156101c557600080fd5b803590602001918460018302840111640100000000831117156101e757600080fd5b91908080601f016020809104026020016040519081016040528093929190818152602001838380828437600081840152601f19601f82011690508083019250505050505050919291929050505061038d565b005b60005481565b6060600160003373ffffffffffffffffffffffffffffffffffffffff1673ffffffffffffffffffffffffffffffffffffffff1681526020019081526020016000206000018054600181600116156101000203166002900480601f0160208091040260200160405190810160405280929190818152602001828054600181600116156101000203166002900480156103195780601f106102ee57610100808354040283529160200191610319565b820191906000526020600020905b8154815290600101906020018083116102fc57829003601f168201915b5050505050905090565b6000600160003373ffffffffffffffffffffffffffffffffffffffff1673ffffffffffffffffffffffffffffffffffffffff16815260200190815260200160002060010160009054906101000a900473ffffffffffffffffffffffffffffffffffffffff16905090565b80600160003373ffffffffffffffffffffffffffffffffffffffff1673ffffffffffffffffffffffffffffffffffffffff16815260200190815260200160002060000190805190602001906103e3929190610479565b5033600160003373ffffffffffffffffffffffffffffffffffffffff1673ffffffffffffffffffffffffffffffffffffffff16815260200190815260200160002060010160006101000a81548173ffffffffffffffffffffffffffffffffffffffff021916908373ffffffffffffffffffffffffffffffffffffffff160217905550600080815480929190600101919050555050565b828054600181600116156101000203166002900490600052602060002090601f016020900481019282601f106104ba57805160ff19168380011785556104e8565b828001600101855582156104e8579182015b828111156104e75782518255916020019190600101906104cc565b5b5090506104f591906104f9565b5090565b61051b91905b808211156105175760008160009055506001016104ff565b5090565b9056fea165627a7a72305820be872a7fe1c1a325d5325475467fd1df2447faf0d0c7c7d44f547ef326e0de9b0029",
  "source": "// SPDX-License-Identifier: MIT\npragma solidity ^0.5.1;\n\ncontract Authentication {\n    uint256 public noOfUsers;\n\n    struct User {\n        string signatureHash;\n        address userAddress;\n    }\n\n    mapping(address => User) private user;\n\n    constructor() public{\n        noOfUsers = 0;\n    }\n\n    function register(string memory _signature) public {\n        // require(\n        //     user[msg.sender].userAddress ==\n        //         address(0x0000000000000000000000000000000000000000),\n        //     \"already registered\"\n        // );\n\n        user[msg.sender].signatureHash = _signature;\n        user[msg.sender].userAddress = msg.sender;\n        noOfUsers++;\n    }\n\n    function getSignatureHash() public view returns (string memory) {\n        // require(msg.sender == user[msg.sender].userAddress, \"Not allowed\");\n\n        return user[msg.sender].signatureHash;\n    }\n\n    function getUserAddress() public view returns (address) {\n        return user[msg.sender].userAddress;\n    }\n}\n",
  "sourcePath": "C:\\Users\\User\\Documents\\Python Projects\\Blockchain Question Paper\\Code\\contracts\\Authentication.sol",
  "compiler": {
    "name": "solc",
    "version": "0.5.1+commit.c8a2cb62.Emscripten.clang"
  },
  "schemaVersion": "3.4.16",
  "updatedAt": "2024-10-29T07:04:51.221Z",
  "networkType": "ethereum",
  "devdoc": {
    "methods": {}
  },
  "userdoc": {
    "methods": {}
  }
}